{
    "abi": [
        {
            "type": "function",
            "name": "commitMove",
            "inputs": [
                {
                    "name": "gameId",
                    "type": "uint256",
                    "internalType": "uint256"
                },
                {
                    "name": "moveHash",
                    "type": "bytes32",
                    "internalType": "bytes32"
                }
            ],
            "outputs": [],
            "stateMutability": "nonpayable"
        },
        {
            "type": "function",
            "name": "createGame",
            "inputs": [
                {
                    "name": "_creator",
                    "type": "bytes32",
                    "internalType": "bytes32"
                }
            ],
            "outputs": [
                {
                    "name": "",
                    "type": "uint256",
                    "internalType": "uint256"
                }
            ],
            "stateMutability": "nonpayable"
        },
        {
            "type": "function",
            "name": "endGame",
            "inputs": [
                {
                    "name": "gameId",
                    "type": "uint256",
                    "internalType": "uint256"
                },
                {
                    "name": "gameHash",
                    "type": "bytes32",
                    "internalType": "bytes32"
                }
            ],
            "outputs": [],
            "stateMutability": "nonpayable"
        },
        {
            "type": "function",
            "name": "getActiveGames",
            "inputs": [],
            "outputs": [
                {
                    "name": "",
                    "type": "uint256[]",
                    "internalType": "uint256[]"
                }
            ],
            "stateMutability": "view"
        },
        {
            "type": "function",
            "name": "getGame",
            "inputs": [
                {
                    "name": "gameId",
                    "type": "uint256",
                    "internalType": "uint256"
                }
            ],
            "outputs": [
                {
                    "name": "id",
                    "type": "uint256",
                    "internalType": "uint256"
                },
                {
                    "name": "players",
                    "type": "bytes32[]",
                    "internalType": "bytes32[]"
                },
                {
                    "name": "status",
                    "type": "uint8",
                    "internalType": "enum UnoGame.GameStatus"
                },
                {
                    "name": "startTime",
                    "type": "uint256",
                    "internalType": "uint256"
                },
                {
                    "name": "endTime",
                    "type": "uint256",
                    "internalType": "uint256"
                },
                {
                    "name": "gameHash",
                    "type": "bytes32",
                    "internalType": "bytes32"
                },
                {
                    "name": "moves",
                    "type": "bytes32[]",
                    "internalType": "bytes32[]"
                }
            ],
            "stateMutability": "view"
        },
        {
            "type": "function",
            "name": "getNotStartedGames",
            "inputs": [],
            "outputs": [
                {
                    "name": "",
                    "type": "uint256[]",
                    "internalType": "uint256[]"
                }
            ],
            "stateMutability": "view"
        },
        {
            "type": "function",
            "name": "joinGame",
            "inputs": [
                {
                    "name": "gameId",
                    "type": "uint256",
                    "internalType": "uint256"
                },
                {
                    "name": "_joinee",
                    "type": "bytes32",
                    "internalType": "bytes32"
                }
            ],
            "outputs": [],
            "stateMutability": "nonpayable"
        },
        {
            "type": "function",
            "name": "startGame",
            "inputs": [
                {
                    "name": "gameId",
                    "type": "uint256",
                    "internalType": "uint256"
                }
            ],
            "outputs": [],
            "stateMutability": "nonpayable"
        },
        {
            "type": "event",
            "name": "GameCreated",
            "inputs": [
                {
                    "name": "gameId",
                    "type": "uint256",
                    "indexed": true,
                    "internalType": "uint256"
                },
                {
                    "name": "creator",
                    "type": "bytes32",
                    "indexed": false,
                    "internalType": "bytes32"
                }
            ],
            "anonymous": false
        },
        {
            "type": "event",
            "name": "GameEnded",
            "inputs": [
                {
                    "name": "gameId",
                    "type": "uint256",
                    "indexed": true,
                    "internalType": "uint256"
                }
            ],
            "anonymous": false
        },
        {
            "type": "event",
            "name": "GameStarted",
            "inputs": [
                {
                    "name": "gameId",
                    "type": "uint256",
                    "indexed": true,
                    "internalType": "uint256"
                }
            ],
            "anonymous": false
        },
        {
            "type": "event",
            "name": "MoveCommitted",
            "inputs": [
                {
                    "name": "gameId",
                    "type": "uint256",
                    "indexed": true,
                    "internalType": "uint256"
                },
                {
                    "name": "moveHash",
                    "type": "bytes32",
                    "indexed": false,
                    "internalType": "bytes32"
                }
            ],
            "anonymous": false
        },
        {
            "type": "event",
            "name": "PlayerJoined",
            "inputs": [
                {
                    "name": "gameId",
                    "type": "uint256",
                    "indexed": true,
                    "internalType": "uint256"
                },
                {
                    "name": "player",
                    "type": "bytes32",
                    "indexed": false,
                    "internalType": "bytes32"
                }
            ],
            "anonymous": false
        },
        {
            "type": "error",
            "name": "ReentrancyGuardReentrantCall",
            "inputs": []
        }
    ],
    "bytecode": {
        "object": "0x6080604052348015600f57600080fd5b506001600055610d84806100246000396000f3fe608060405234801561001057600080fd5b50600436106100885760003560e01c8063a2f77bcc1161005b578063a2f77bcc146100f4578063ac9526711461011a578063cc3415d81461012d578063e5ed1d591461013557600080fd5b80631b76929c1461008d57806326826f62146100ab578063457391e5146100c05780636e1ef8b2146100e1575b600080fd5b610095610148565b6040516100a29190610b1a565b60405180910390f35b6100be6100b9366004610b5d565b6101a0565b005b6100d36100ce366004610b7f565b610293565b6040519081526020016100a2565b6100be6100ef366004610b5d565b61040e565b610107610102366004610b7f565b6104f6565b6040516100a29796959493929190610bea565b6100be610128366004610b5d565b610605565b61009561074b565b6100be610143366004610b7f565b6108c3565b6060600280548060200260200160405190810160405280929190818152602001828054801561019657602002820191906000526020600020905b815481526020019060010190808311610182575b5050505050905090565b8160016000821180156101b557506001548211155b6101da5760405162461bcd60e51b81526004016101d190610c59565b60405180910390fd5b60008281526003602052604090208160028111156101fa576101fa610bd4565b60028083015460ff169081111561021357610213610bd4565b146102305760405162461bcd60e51b81526004016101d190610c82565b6000858152600360209081526040808320600681018054600181018255908552938390209093018790555186815287917f8da9ca3f91d5711e050b7b3cd914a0e574d11bf428d5150a622d83903d479d5c910160405180910390a2505050505050565b600061029d6109e2565b600180549060006102ad83610cda565b9091555050600180546040805160e08101825282815281516000808252602080830185528084019283528385018290524260608501526080840182905260a084018290528451828152808201865260c085015285825260038152939020825181559051805194959294919361032793850192910190610aba565b5060408201518160020160006101000a81548160ff0219169083600281111561035257610352610bd4565b0217905550606082015160038201556080820151600482015560a0820151600582015560c08201518051610390916006840191602090910190610aba565b5050600280546001810182556000919091527f405787fa12a823e0f2b7631cc41b3ba8828b3321ca811111fa75cd3aa3bb5ace018290555060405183815281907fe0eb15f8324648c97893a63e725995febbf40c5ed00da9249b0b1ea5173796f79060200160405180910390a290506104096001600055565b919050565b81600160008211801561042357506001548211155b61043f5760405162461bcd60e51b81526004016101d190610c59565b600082815260036020526040902081600281111561045f5761045f610bd4565b60028083015460ff169081111561047857610478610bd4565b146104955760405162461bcd60e51b81526004016101d190610c82565b60008581526003602052604090206002808201805460ff19169091179055600581018590556104c386610a0c565b60405186907fce24807f7e4b60b4e641462f13029fa5e5f79075bbc3f8e5cd43ecd19661d76090600090a2505050505050565b6000606060008060008060606000600360008a815260200190815260200160002090508060000154816001018260020160009054906101000a900460ff16836003015484600401548560050154866006018580548060200260200160405190810160405280929190818152602001828054801561059257602002820191906000526020600020905b81548152602001906001019080831161057e575b50505050509550808054806020026020016040519081016040528092919081815260200182805480156105e457602002820191906000526020600020905b8154815260200190600101908083116105d0575b50505050509050975097509750975097509750975050919395979092949650565b61060d6109e2565b816000808211801561062157506001548211155b61063d5760405162461bcd60e51b81526004016101d190610c59565b600082815260036020526040902081600281111561065d5761065d610bd4565b60028083015460ff169081111561067657610676610bd4565b146106935760405162461bcd60e51b81526004016101d190610c82565b60008581526003602052604090206001810154600a116106e45760405162461bcd60e51b815260206004820152600c60248201526b11d85b59481a5cc8199d5b1b60a21b60448201526064016101d1565b6001808201805491820181556000908152602090200185905560405186907f52ad9218837bfeb0f1fd09a5e3c004c4b73999fa95ebf54cd2233f8ae44f9d64906107319088815260200190565b60405180910390a2505050506107476001600055565b5050565b60025460609060009067ffffffffffffffff81111561076c5761076c610cf3565b604051908082528060200260200182016040528015610795578160200160208202803683370190505b5090506000805b600254811015610829576000600282815481106107bb576107bb610d09565b60009182526020822001549150600082815260036020526040902060029081015460ff16908111156107ef576107ef610bd4565b14610820578084848151811061080757610807610d09565b60209081029190910101528261081c81610cda565b9350505b5060010161079c565b5060008167ffffffffffffffff81111561084557610845610cf3565b60405190808252806020026020018201604052801561086e578160200160208202803683370190505b50905060005b828110156108bb5783818151811061088e5761088e610d09565b60200260200101518282815181106108a8576108a8610d09565b6020908102919091010152600101610874565b509392505050565b80600080821180156108d757506001548211155b6108f35760405162461bcd60e51b81526004016101d190610c59565b600082815260036020526040902081600281111561091357610913610bd4565b60028083015460ff169081111561092c5761092c610bd4565b146109495760405162461bcd60e51b81526004016101d190610c82565b60008481526003602052604090206001810154600211156109a15760405162461bcd60e51b81526020600482015260126024820152714e6f7420656e6f75676820706c617965727360701b60448201526064016101d1565b60028101805460ff1916600117905560405185907f50ad08f58a27f2851d7e3a1b3a6a46b290f2ce677e99642d30ff639721e7779090600090a25050505050565b600260005403610a0557604051633ee5aeb560e01b815260040160405180910390fd5b6002600055565b60005b600254811015610747578160028281548110610a2d57610a2d610d09565b906000526020600020015403610ab25760028054610a4d90600190610d1f565b81548110610a5d57610a5d610d09565b906000526020600020015460028281548110610a7b57610a7b610d09565b6000918252602090912001556002805480610a9857610a98610d38565b600190038181906000526020600020016000905590555050565b600101610a0f565b828054828255906000526020600020908101928215610af5579160200282015b82811115610af5578251825591602001919060010190610ada565b50610b01929150610b05565b5090565b5b80821115610b015760008155600101610b06565b602080825282518282018190526000918401906040840190835b81811015610b52578351835260209384019390920191600101610b34565b509095945050505050565b60008060408385031215610b7057600080fd5b50508035926020909101359150565b600060208284031215610b9157600080fd5b5035919050565b600081518084526020840193506020830160005b82811015610bca578151865260209586019590910190600101610bac565b5093949350505050565b634e487b7160e01b600052602160045260246000fd5b87815260e060208201526000610c0360e0830189610b98565b60038810610c2157634e487b7160e01b600052602160045260246000fd5b8760408401528660608401528560808401528460a084015282810360c0840152610c4b8185610b98565b9a9950505050505050505050565b6020808252600f908201526e125b9d985b1a590819d85b59481251608a1b604082015260600190565b60208082526022908201527f47616d65206973206e6f7420696e207468652072657175697265642073746174604082015261757360f01b606082015260800190565b634e487b7160e01b600052601160045260246000fd5b600060018201610cec57610cec610cc4565b5060010190565b634e487b7160e01b600052604160045260246000fd5b634e487b7160e01b600052603260045260246000fd5b81810381811115610d3257610d32610cc4565b92915050565b634e487b7160e01b600052603160045260246000fdfea2646970667358221220c40028129f4fcd52b72cf3bc7c1b72ee04a5ce753a0839569ef0d6cc5ea54ffc64736f6c634300081c0033",
        "linkReferences": {}
    },
    "methodIdentifiers": {
        "commitMove(uint256,bytes32)": "26826f62",
        "createGame(bytes32)": "457391e5",
        "endGame(uint256,bytes32)": "6e1ef8b2",
        "getActiveGames()": "1b76929c",
        "getGame(uint256)": "a2f77bcc",
        "getNotStartedGames()": "cc3415d8",
        "joinGame(uint256,bytes32)": "ac952671",
        "startGame(uint256)": "e5ed1d59"
    },
    "id": 21
}