{"abi":[{"type":"function","name":"createGame","inputs":[],"outputs":[{"name":"","type":"uint256","internalType":"uint256"}],"stateMutability":"nonpayable"},{"type":"function","name":"endGame","inputs":[{"name":"gameId","type":"uint256","internalType":"uint256"}],"outputs":[],"stateMutability":"nonpayable"},{"type":"function","name":"gameActions","inputs":[{"name":"","type":"uint256","internalType":"uint256"},{"name":"","type":"uint256","internalType":"uint256"}],"outputs":[{"name":"player","type":"address","internalType":"address"},{"name":"actionHash","type":"bytes32","internalType":"bytes32"},{"name":"timestamp","type":"uint256","internalType":"uint256"}],"stateMutability":"view"},{"type":"function","name":"games","inputs":[{"name":"","type":"uint256","internalType":"uint256"}],"outputs":[{"name":"id","type":"uint256","internalType":"uint256"},{"name":"isActive","type":"bool","internalType":"bool"},{"name":"currentPlayerIndex","type":"uint256","internalType":"uint256"},{"name":"stateHash","type":"bytes32","internalType":"bytes32"},{"name":"lastActionTimestamp","type":"uint256","internalType":"uint256"},{"name":"turnCount","type":"uint256","internalType":"uint256"},{"name":"directionClockwise","type":"bool","internalType":"bool"},{"name":"seed","type":"uint256","internalType":"uint256"}],"stateMutability":"view"},{"type":"function","name":"getActiveGames","inputs":[],"outputs":[{"name":"","type":"uint256[]","internalType":"uint256[]"}],"stateMutability":"view"},{"type":"function","name":"getGameActions","inputs":[{"name":"gameId","type":"uint256","internalType":"uint256"}],"outputs":[{"name":"","type":"tuple[]","internalType":"struct UnoGame.Action[]","components":[{"name":"player","type":"address","internalType":"address"},{"name":"actionHash","type":"bytes32","internalType":"bytes32"},{"name":"timestamp","type":"uint256","internalType":"uint256"}]}],"stateMutability":"view"},{"type":"function","name":"getGameState","inputs":[{"name":"gameId","type":"uint256","internalType":"uint256"}],"outputs":[{"name":"players","type":"address[]","internalType":"address[]"},{"name":"isActive","type":"bool","internalType":"bool"},{"name":"currentPlayerIndex","type":"uint256","internalType":"uint256"},{"name":"stateHash","type":"bytes32","internalType":"bytes32"},{"name":"lastActionTimestamp","type":"uint256","internalType":"uint256"},{"name":"turnCount","type":"uint256","internalType":"uint256"},{"name":"directionClockwise","type":"bool","internalType":"bool"},{"name":"seed","type":"uint256","internalType":"uint256"}],"stateMutability":"view"},{"type":"function","name":"isPlayerTurn","inputs":[{"name":"gameId","type":"uint256","internalType":"uint256"},{"name":"player","type":"address","internalType":"address"}],"outputs":[{"name":"","type":"bool","internalType":"bool"}],"stateMutability":"view"},{"type":"function","name":"joinGame","inputs":[{"name":"gameId","type":"uint256","internalType":"uint256"}],"outputs":[],"stateMutability":"nonpayable"},{"type":"function","name":"submitAction","inputs":[{"name":"gameId","type":"uint256","internalType":"uint256"},{"name":"actionHash","type":"bytes32","internalType":"bytes32"},{"name":"isReverse","type":"bool","internalType":"bool"},{"name":"isSkip","type":"bool","internalType":"bool"},{"name":"isDrawTwo","type":"bool","internalType":"bool"},{"name":"isWildDrawFour","type":"bool","internalType":"bool"}],"outputs":[],"stateMutability":"nonpayable"},{"type":"event","name":"ActionSubmitted","inputs":[{"name":"gameId","type":"uint256","indexed":true,"internalType":"uint256"},{"name":"player","type":"address","indexed":false,"internalType":"address"},{"name":"actionHash","type":"bytes32","indexed":false,"internalType":"bytes32"}],"anonymous":false},{"type":"event","name":"GameCreated","inputs":[{"name":"gameId","type":"uint256","indexed":true,"internalType":"uint256"},{"name":"creator","type":"address","indexed":false,"internalType":"address"}],"anonymous":false},{"type":"event","name":"GameEnded","inputs":[{"name":"gameId","type":"uint256","indexed":true,"internalType":"uint256"}],"anonymous":false},{"type":"event","name":"PlayerJoined","inputs":[{"name":"gameId","type":"uint256","indexed":true,"internalType":"uint256"},{"name":"player","type":"address","indexed":false,"internalType":"address"}],"anonymous":false},{"type":"error","name":"ReentrancyGuardReentrantCall","inputs":[]}],"bytecode":{"object":"0x6080604052348015600f57600080fd5b506001600055611186806100246000396000f3fe608060405234801561001057600080fd5b506004361061009e5760003560e01c8063b71d79f311610066578063b71d79f3146101ac578063d0399bb8146101e4578063efaa55a0146101f9578063f7a432e41461020c578063ffde0c741461021f57600080fd5b8063117a5b90146100a35780631b76929c1461013e5780633a240e98146101535780637255d72914610176578063b5870a681461018c575b600080fd5b6100fc6100b1366004610e61565b600360208190526000918252604090912080546002820154928201546004830154600584015460068501546007860154600890960154949660ff908116969495939492939192169088565b604080519889529615156020890152958701949094526060860192909252608085015260a0840152151560c083015260e0820152610100015b60405180910390f35b610146610246565b6040516101359190610e7a565b610166610161366004610ebd565b61029e565b6040519015158152602001610135565b61017e6102f2565b604051908152602001610135565b61019f61019a366004610e61565b6104e7565b6040516101359190610ef9565b6101bf6101ba366004610f53565b61061a565b604080516001600160a01b039094168452602084019290925290820152606001610135565b6101f76101f2366004610e61565b610666565b005b6101f7610207366004610e61565b610722565b6101f761021a366004610f8a565b610845565b61023261022d366004610e61565b6109c1565b604051610135989796959493929190610ff0565b6060600280548060200260200160405190810160405280929190818152602001828054801561029457602002820191906000526020600020905b815481526020019060010190808311610280575b5050505050905090565b6000828152600360208190526040822090810154600190910180546001600160a01b038516929081106102d3576102d3611081565b6000918252602090912001546001600160a01b03161490505b92915050565b60006102fc610b1b565b6001805490600061030c836110ad565b909155505060015460405160009061034f90429044903390602001928352602083019190915260601b6bffffffffffffffffffffffff1916604082015260540190565b60408051601f198184030181528282528051602091820120818401869052838301819052825180850384018152606085018085528151918401919091206101808601855287825284516000808252818601875260808801918252600160a0890181905260c0890182905260e08901849052426101008a01526101208901829052610140890181905261016090980185905289815260038652959095208251815594518051939750909591949361040b9392850192910190610de7565b506040828101516002838101805492151560ff19938416179055606085015160038501556080850151600485015560a0850151600585015560c0850151600685015560e085015160078501805491151591909316179091556101009093015160089092019190915581546001810183556000929092527f405787fa12a823e0f2b7631cc41b3ba8828b3321ca811111fa75cd3aa3bb5ace9091018490555133815283907fc3e0f84839dc888c892a013d10c8f9d6dc05a21a879d0ce468ca558013e9121c9060200160405180910390a250506001600055905090565b60606000821180156104fb57506001548211155b61053e5760405162461bcd60e51b815260206004820152600f60248201526e125b9d985b1a590819d85b59481251608a1b60448201526064015b60405180910390fd5b60008281526003602052604090205482146105915760405162461bcd60e51b815260206004820152601360248201527211d85b5948191bd95cc81b9bdd08195e1a5cdd606a1b6044820152606401610535565b600082815260046020908152604080832080548251818502810185019093528083529193909284015b8282101561060f576000848152602090819020604080516060810182526003860290920180546001600160a01b03168352600180820154848601526002909101549183019190915290835290920191016105ba565b505050509050919050565b6004602052816000526040600020818154811061063657600080fd5b60009182526020909120600390910201805460018201546002909201546001600160a01b03909116935090915083565b6000818152600360205260409020600281015460ff166106985760405162461bcd60e51b8152600401610535906110c6565b6106a2823361029e565b6106de5760405162461bcd60e51b815260206004820152600d60248201526c2737ba103cb7bab9103a3ab93760991b6044820152606401610535565b60028101805460ff191690556106f382610b45565b60405182907fce24807f7e4b60b4e641462f13029fa5e5f79075bbc3f8e5cd43ecd19661d76090600090a25050565b61072a610b1b565b60008181526003602052604090206002015460ff1661075b5760405162461bcd60e51b8152600401610535906110c6565b600081815260036020526040902060010154600a116107ab5760405162461bcd60e51b815260206004820152600c60248201526b11d85b59481a5cc8199d5b1b60a21b6044820152606401610535565b600081815260036020908152604080832060019081018054918201815584529282902090920180546001600160a01b03191633908117909155915191825282917f87969bc7faf902221a147b95ceba76e011c5efb0339a0a8ee7a2bb82d9cfbbd6910160405180910390a26000818152600360205260409020600101546004036108385761083881610bf7565b6108426001600055565b50565b61084d610b1b565b6000868152600360205260409020600281015460ff1661087f5760405162461bcd60e51b8152600401610535906110c6565b610889873361029e565b6108c55760405162461bcd60e51b815260206004820152600d60248201526c2737ba103cb7bab9103a3ab93760991b6044820152606401610535565b6004810154604080516020810192909252810187905260600160408051808303601f19018152828252805160209182012060048581019190915560008b81529082528281206060850184523385528285018b815242948601948552815460018082018455928452939092209451600390930290940180546001600160a01b0319166001600160a01b039093169290921782555192810192909255516002909101556109738786868686610cc1565b604080513381526020810188905288917f8188a33f6aa922cc621fb93150a58aa3c90ccacd19eaae34b52797ffc5d3d22f910160405180910390a2506109b96001600055565b505050505050565b6060600080600080600080600080891180156109df57506001548911155b610a1d5760405162461bcd60e51b815260206004820152600f60248201526e125b9d985b1a590819d85b59481251608a1b6044820152606401610535565b600089815260036020526040902080548a14610a715760405162461bcd60e51b815260206004820152601360248201527211d85b5948191bd95cc81b9bdd08195e1a5cdd606a1b6044820152606401610535565b600281015460038201546004830154600584015460068501546007860154600887015460018801805460408051602080840282018101909252828152929960ff9081169998979695169392918a91830182828015610af857602002820191906000526020600020905b81546001600160a01b03168152600190910190602001808311610ada575b505050505097509850985098509850985098509850985050919395975091939597565b600260005403610b3e57604051633ee5aeb560e01b815260040160405180910390fd5b6002600055565b60005b600254811015610bf3578160028281548110610b6657610b66611081565b906000526020600020015403610beb5760028054610b86906001906110f2565b81548110610b9657610b96611081565b906000526020600020015460028281548110610bb457610bb4611081565b6000918252602090912001556002805480610bd157610bd1611105565b600190038181906000526020600020016000905590555050565b600101610b48565b5050565b6000818152600360205260409020600181015460021115610c4f5760405162461bcd60e51b81526020600482015260126024820152714e6f7420656e6f75676820706c617965727360701b6044820152606401610535565b6008810154604080516020810192909252429082015244606082015260800160408051808303601f190181528282528051602091820120600885018190556004850154918401919091529082015260600160408051601f19818403018152919052805160209091012060049091015550565b60008581526003602052604090208415610cea5760078101805460ff19811660ff909116151790555b600181015460008580610cfa5750845b80610d025750835b15610d6257600783015460ff16610d3f57816002838560030154610d26919061111b565b610d3091906110f2565b610d3a919061112e565b610d5b565b8183600301546002610d51919061111b565b610d5b919061112e565b9050610db9565b600783015460ff16610d9a57816001838560030154610d81919061111b565b610d8b91906110f2565b610d95919061112e565b610db6565b8183600301546001610dac919061111b565b610db6919061112e565b90505b60038301819055426005840155600683018054906000610dd8836110ad565b91905055505050505050505050565b828054828255906000526020600020908101928215610e3c579160200282015b82811115610e3c57825182546001600160a01b0319166001600160a01b03909116178255602090920191600190910190610e07565b50610e48929150610e4c565b5090565b5b80821115610e485760008155600101610e4d565b600060208284031215610e7357600080fd5b5035919050565b602080825282518282018190526000918401906040840190835b81811015610eb2578351835260209384019390920191600101610e94565b509095945050505050565b60008060408385031215610ed057600080fd5b8235915060208301356001600160a01b0381168114610eee57600080fd5b809150509250929050565b602080825282518282018190526000918401906040840190835b81811015610eb257835180516001600160a01b03168452602080820151818601526040918201519185019190915290930192606090920191600101610f13565b60008060408385031215610f6657600080fd5b50508035926020909101359150565b80358015158114610f8557600080fd5b919050565b60008060008060008060c08789031215610fa357600080fd5b8635955060208701359450610fba60408801610f75565b9350610fc860608801610f75565b9250610fd660808801610f75565b9150610fe460a08801610f75565b90509295509295509295565b610100808252895190820181905260009060208b0190610120840190835b818110156110355783516001600160a01b031683526020938401939092019160010161100e565b50508a1515602085015291506110489050565b8760408301528660608301528560808301528460a083015261106e60c083018515159052565b8260e08301529998505050505050505050565b634e487b7160e01b600052603260045260246000fd5b634e487b7160e01b600052601160045260246000fd5b6000600182016110bf576110bf611097565b5060010190565b60208082526012908201527147616d65206973206e6f742061637469766560701b604082015260600190565b818103818111156102ec576102ec611097565b634e487b7160e01b600052603160045260246000fd5b808201808211156102ec576102ec611097565b60008261114b57634e487b7160e01b600052601260045260246000fd5b50069056fea264697066735822122065020db48fbdaae05a1de9ec765b0dcfc74516dc9110bae48501130a4471588964736f6c634300081a0033","linkReferences":{}},"methodIdentifiers":{"createGame()":"7255d729","endGame(uint256)":"d0399bb8","gameActions(uint256,uint256)":"b71d79f3","games(uint256)":"117a5b90","getActiveGames()":"1b76929c","getGameActions(uint256)":"b5870a68","getGameState(uint256)":"ffde0c74","isPlayerTurn(uint256,address)":"3a240e98","joinGame(uint256)":"efaa55a0","submitAction(uint256,bytes32,bool,bool,bool,bool)":"f7a432e4"},"id":21}