{"abi":[{"type":"function","name":"createGame","inputs":[],"outputs":[{"name":"","type":"uint256","internalType":"uint256"}],"stateMutability":"nonpayable"},{"type":"function","name":"endGame","inputs":[{"name":"gameId","type":"uint256","internalType":"uint256"}],"outputs":[],"stateMutability":"nonpayable"},{"type":"function","name":"gameActions","inputs":[{"name":"","type":"uint256","internalType":"uint256"},{"name":"","type":"uint256","internalType":"uint256"}],"outputs":[{"name":"player","type":"address","internalType":"address"},{"name":"actionHash","type":"bytes32","internalType":"bytes32"},{"name":"timestamp","type":"uint256","internalType":"uint256"}],"stateMutability":"view"},{"type":"function","name":"games","inputs":[{"name":"","type":"uint256","internalType":"uint256"}],"outputs":[{"name":"id","type":"uint256","internalType":"uint256"},{"name":"isActive","type":"bool","internalType":"bool"},{"name":"currentPlayerIndex","type":"uint256","internalType":"uint256"},{"name":"stateHash","type":"bytes32","internalType":"bytes32"},{"name":"lastActionTimestamp","type":"uint256","internalType":"uint256"},{"name":"turnCount","type":"uint256","internalType":"uint256"},{"name":"directionClockwise","type":"bool","internalType":"bool"},{"name":"isStarted","type":"bool","internalType":"bool"}],"stateMutability":"view"},{"type":"function","name":"getActiveGames","inputs":[],"outputs":[{"name":"","type":"uint256[]","internalType":"uint256[]"}],"stateMutability":"view"},{"type":"function","name":"getGameActions","inputs":[{"name":"gameId","type":"uint256","internalType":"uint256"}],"outputs":[{"name":"","type":"tuple[]","internalType":"struct UnoGame.Action[]","components":[{"name":"player","type":"address","internalType":"address"},{"name":"actionHash","type":"bytes32","internalType":"bytes32"},{"name":"timestamp","type":"uint256","internalType":"uint256"}]}],"stateMutability":"view"},{"type":"function","name":"getGameState","inputs":[{"name":"gameId","type":"uint256","internalType":"uint256"}],"outputs":[{"name":"players","type":"address[]","internalType":"address[]"},{"name":"isActive","type":"bool","internalType":"bool"},{"name":"currentPlayerIndex","type":"uint256","internalType":"uint256"},{"name":"stateHash","type":"bytes32","internalType":"bytes32"},{"name":"lastActionTimestamp","type":"uint256","internalType":"uint256"},{"name":"turnCount","type":"uint256","internalType":"uint256"},{"name":"directionClockwise","type":"bool","internalType":"bool"},{"name":"isStarted","type":"bool","internalType":"bool"}],"stateMutability":"view"},{"type":"function","name":"isPlayerTurn","inputs":[{"name":"gameId","type":"uint256","internalType":"uint256"},{"name":"player","type":"address","internalType":"address"}],"outputs":[{"name":"","type":"bool","internalType":"bool"}],"stateMutability":"view"},{"type":"function","name":"joinGame","inputs":[{"name":"gameId","type":"uint256","internalType":"uint256"}],"outputs":[],"stateMutability":"nonpayable"},{"type":"function","name":"startGame","inputs":[{"name":"gameId","type":"uint256","internalType":"uint256"},{"name":"initialStateHash","type":"bytes32","internalType":"bytes32"}],"outputs":[],"stateMutability":"nonpayable"},{"type":"function","name":"submitAction","inputs":[{"name":"gameId","type":"uint256","internalType":"uint256"},{"name":"actionHash","type":"bytes32","internalType":"bytes32"}],"outputs":[],"stateMutability":"nonpayable"},{"type":"event","name":"ActionSubmitted","inputs":[{"name":"gameId","type":"uint256","indexed":true,"internalType":"uint256"},{"name":"player","type":"address","indexed":false,"internalType":"address"},{"name":"actionHash","type":"bytes32","indexed":false,"internalType":"bytes32"}],"anonymous":false},{"type":"event","name":"GameCreated","inputs":[{"name":"gameId","type":"uint256","indexed":true,"internalType":"uint256"},{"name":"creator","type":"address","indexed":false,"internalType":"address"}],"anonymous":false},{"type":"event","name":"GameEnded","inputs":[{"name":"gameId","type":"uint256","indexed":true,"internalType":"uint256"}],"anonymous":false},{"type":"event","name":"GameStarted","inputs":[{"name":"gameId","type":"uint256","indexed":true,"internalType":"uint256"},{"name":"initialStateHash","type":"bytes32","indexed":false,"internalType":"bytes32"}],"anonymous":false},{"type":"event","name":"PlayerJoined","inputs":[{"name":"gameId","type":"uint256","indexed":true,"internalType":"uint256"},{"name":"player","type":"address","indexed":false,"internalType":"address"}],"anonymous":false},{"type":"error","name":"ReentrancyGuardReentrantCall","inputs":[]}],"bytecode":{"object":"0x6080604052348015600f57600080fd5b50600160005561121d806100246000396000f3fe608060405234801561001057600080fd5b50600436106100a95760003560e01c8063b5870a6811610071578063b5870a68146101b0578063b71d79f3146101d0578063bfb51ac914610208578063d0399bb81461021b578063efaa55a01461022e578063ffde0c741461024157600080fd5b8063117a5b90146100ae5780631b76929c1461014d5780633a240e98146101625780636e613ea3146101855780637255d7291461019a575b600080fd5b6101096100bc366004610f02565b60036020819052600091825260409091208054600282015492820154600483015460058401546006850154600790950154939560ff90811695939492939192808216916101009091041688565b604080519889529615156020890152958701949094526060860192909252608085015260a0840152151560c0830152151560e0820152610100015b60405180910390f35b610155610268565b6040516101449190610f1b565b610175610170366004610f5e565b6102c0565b6040519015158152602001610144565b610198610193366004610f9a565b610314565b005b6101a2610491565b604051908152602001610144565b6101c36101be366004610f02565b610693565b6040516101449190610fbc565b6101e36101de366004610f9a565b6107c1565b604080516001600160a01b039094168452602084019290925290820152606001610144565b610198610216366004610f9a565b61080d565b610198610229366004610f02565b610915565b61019861023c366004610f02565b6109d1565b61025461024f366004610f02565b610ad2565b604051610144989796959493929190611016565b606060028054806020026020016040519081016040528092919081815260200182805480156102b657602002820191906000526020600020905b8154815260200190600101908083116102a2575b5050505050905090565b6000828152600360208190526040822090810154600190910180546001600160a01b038516929081106102f5576102f56110a9565b6000918252602090912001546001600160a01b03161490505b92915050565b61031c610c34565b6000828152600360205260409020600281015460ff166103575760405162461bcd60e51b815260040161034e906110bf565b60405180910390fd5b61036183336102c0565b61039d5760405162461bcd60e51b815260206004820152600d60248201526c2737ba103cb7bab9103a3ab93760991b604482015260640161034e565b6004810154604080516020810192909252810183905260600160408051808303601f190181528282528051602091820120600485810191909155600087815290825282812060608501845233855282850187815242948601948552815460018082018455928452939092209451600390930290940180546001600160a01b0319166001600160a01b0390931692909217825551928101929092555160029091015561044783610c5e565b604080513381526020810184905284917f8188a33f6aa922cc621fb93150a58aa3c90ccacd19eaae34b52797ffc5d3d22f910160405180910390a25061048d6001600055565b5050565b600061049b610c34565b600180549060006104ab83611101565b90915550506001546040516000906104ee90429044903390602001928352602083019190915260601b6bffffffffffffffffffffffff1916604082015260540190565b60408051601f198184030181528282528051602091820120818401869052838301819052825180850384018152606085018085528151918401919091206101808601855287825284516000808252818601875260808801918252600160a0890181905260c0890182905260e08901849052426101008a0152610120890182905261014089018190526101609098018190528981526003865295909520825181559451805193975090959194936105aa9392850192910190610e88565b506040828101516002838101805460ff191692151592909217909155606084015160038401556080840151600484015560a0840151600584015560c0840151600684015560e0840151600790930180546101009586015161ffff1990911694151561ff001916949094179315159094029290921790925580546001810182556000919091527f405787fa12a823e0f2b7631cc41b3ba8828b3321ca811111fa75cd3aa3bb5ace018490555133815283907fc3e0f84839dc888c892a013d10c8f9d6dc05a21a879d0ce468ca558013e9121c9060200160405180910390a250506001600055905090565b60606000821180156106a757506001548211155b6106e55760405162461bcd60e51b815260206004820152600f60248201526e125b9d985b1a590819d85b59481251608a1b604482015260640161034e565b60008281526003602052604090205482146107385760405162461bcd60e51b815260206004820152601360248201527211d85b5948191bd95cc81b9bdd08195e1a5cdd606a1b604482015260640161034e565b600082815260046020908152604080832080548251818502810185019093528083529193909284015b828210156107b6576000848152602090819020604080516060810182526003860290920180546001600160a01b0316835260018082015484860152600290910154918301919091529083529092019101610761565b505050509050919050565b600460205281600052604060002081815481106107dd57600080fd5b60009182526020909120600390910201805460018201546002909201546001600160a01b03909116935090915083565b60008281526003602052604090206007810154610100900460ff161561086c5760405162461bcd60e51b815260206004820152601460248201527311d85b5948185b1c9958591e481cdd185c9d195960621b604482015260640161034e565b6001810154600211156108b65760405162461bcd60e51b81526020600482015260126024820152714e6f7420656e6f75676820706c617965727360701b604482015260640161034e565b60078101805461ff0019166101001790556004810182905542600582015560405183907fb4a411a01bc386893734d83e17411a973f9dbb12732aff7a88d6964f1360b160906109089085815260200190565b60405180910390a2505050565b6000818152600360205260409020600281015460ff166109475760405162461bcd60e51b815260040161034e906110bf565b61095182336102c0565b61098d5760405162461bcd60e51b815260206004820152600d60248201526c2737ba103cb7bab9103a3ab93760991b604482015260640161034e565b60028101805460ff191690556109a282610d88565b60405182907fce24807f7e4b60b4e641462f13029fa5e5f79075bbc3f8e5cd43ecd19661d76090600090a25050565b6109d9610c34565b60008181526003602052604090206002015460ff16610a0a5760405162461bcd60e51b815260040161034e906110bf565b600081815260036020526040902060010154600a11610a5a5760405162461bcd60e51b815260206004820152600c60248201526b11d85b59481a5cc8199d5b1b60a21b604482015260640161034e565b600081815260036020908152604080832060019081018054918201815584529282902090920180546001600160a01b03191633908117909155915191825282917f87969bc7faf902221a147b95ceba76e011c5efb0339a0a8ee7a2bb82d9cfbbd6910160405180910390a2610acf6001600055565b50565b606060008060008060008060008089118015610af057506001548911155b610b2e5760405162461bcd60e51b815260206004820152600f60248201526e125b9d985b1a590819d85b59481251608a1b604482015260640161034e565b600089815260036020526040902080548a14610b825760405162461bcd60e51b815260206004820152601360248201527211d85b5948191bd95cc81b9bdd08195e1a5cdd606a1b604482015260640161034e565b60028101546003820154600483015460058401546006850154600786015460018701805460408051602080840282018101909252828152929860ff9081169897969594808216946101009091049091169290918a9190830182828015610c1157602002820191906000526020600020905b81546001600160a01b03168152600190910190602001808311610bf3575b505050505097509850985098509850985098509850985050919395975091939597565b600260005403610c5757604051633ee5aeb560e01b815260040160405180910390fd5b6002600055565b60008181526003602052604081206006810180549192610c7d83611101565b909155505060018082015460038301549091610c99919061111a565b610ca3919061112d565b60038201554260058201556040805161012081018252825481526001830180548351602082810282018101909552818152610d7f948693818601939091830182828015610d1957602002820191906000526020600020905b81546001600160a01b03168152600190910190602001808311610cfb575b5050509183525050600282015460ff90811615156020830152600383015460408301526004830154606083015260058301546080830152600683015460a0830152600790920154808316151560c08301526101009004909116151560e090910152610e36565b60049091015550565b60005b60025481101561048d578160028281548110610da957610da96110a9565b906000526020600020015403610e2e5760028054610dc99060019061114f565b81548110610dd957610dd96110a9565b906000526020600020015460028281548110610df757610df76110a9565b6000918252602090912001556002805480610e1457610e14611162565b600190038181906000526020600020016000905590555050565b600101610d8b565b8051602080830151604080850151606086015160a087015160c088015160e08901519451600098610e6b989097969101611178565b604051602081830303815290604052805190602001209050919050565b828054828255906000526020600020908101928215610edd579160200282015b82811115610edd57825182546001600160a01b0319166001600160a01b03909116178255602090920191600190910190610ea8565b50610ee9929150610eed565b5090565b5b80821115610ee95760008155600101610eee565b600060208284031215610f1457600080fd5b5035919050565b602080825282518282018190526000918401906040840190835b81811015610f53578351835260209384019390920191600101610f35565b509095945050505050565b60008060408385031215610f7157600080fd5b8235915060208301356001600160a01b0381168114610f8f57600080fd5b809150509250929050565b60008060408385031215610fad57600080fd5b50508035926020909101359150565b602080825282518282018190526000918401906040840190835b81811015610f5357835180516001600160a01b03168452602080820151818601526040918201519185019190915290930192606090920191600101610fd6565b610100808252895190820181905260009060208b0190610120840190835b8181101561105b5783516001600160a01b0316835260209384019390920191600101611034565b50508a15156020850152915061106e9050565b8760408301528660608301528560808301528460a083015261109460c083018515159052565b82151560e08301529998505050505050505050565b634e487b7160e01b600052603260045260246000fd5b60208082526012908201527147616d65206973206e6f742061637469766560701b604082015260600190565b634e487b7160e01b600052601160045260246000fd5b600060018201611113576111136110eb565b5060010190565b8082018082111561030e5761030e6110eb565b60008261114a57634e487b7160e01b600052601260045260246000fd5b500690565b8181038181111561030e5761030e6110eb565b634e487b7160e01b600052603160045260246000fd5b878152600060208201885160208a0160005b828110156111b15781516001600160a01b031684526020938401939091019060010161118a565b50505096151560f890811b885260018801969096525050602185019290925260418401521515901b60618201526062019291505056fea26469706673582212205ee68aced9b65df956a1f002f4421bd267076ed039e40ed5dc0b60515f1679bf64736f6c634300081a0033","linkReferences":{}},"methodIdentifiers":{"createGame()":"7255d729","endGame(uint256)":"d0399bb8","gameActions(uint256,uint256)":"b71d79f3","games(uint256)":"117a5b90","getActiveGames()":"1b76929c","getGameActions(uint256)":"b5870a68","getGameState(uint256)":"ffde0c74","isPlayerTurn(uint256,address)":"3a240e98","joinGame(uint256)":"efaa55a0","startGame(uint256,bytes32)":"bfb51ac9","submitAction(uint256,bytes32)":"6e613ea3"},"id":21}