{"abi":[{"type":"function","name":"createGame","inputs":[{"name":"_creator","type":"address","internalType":"address"}],"outputs":[{"name":"","type":"uint256","internalType":"uint256"}],"stateMutability":"nonpayable"},{"type":"function","name":"endGame","inputs":[{"name":"gameId","type":"uint256","internalType":"uint256"},{"name":"_actor","type":"address","internalType":"address"}],"outputs":[],"stateMutability":"nonpayable"},{"type":"function","name":"gameActions","inputs":[{"name":"","type":"uint256","internalType":"uint256"},{"name":"","type":"uint256","internalType":"uint256"}],"outputs":[{"name":"player","type":"address","internalType":"address"},{"name":"actionHash","type":"bytes32","internalType":"bytes32"},{"name":"timestamp","type":"uint256","internalType":"uint256"}],"stateMutability":"view"},{"type":"function","name":"games","inputs":[{"name":"","type":"uint256","internalType":"uint256"}],"outputs":[{"name":"id","type":"uint256","internalType":"uint256"},{"name":"isActive","type":"bool","internalType":"bool"},{"name":"currentPlayerIndex","type":"uint256","internalType":"uint256"},{"name":"stateHash","type":"bytes32","internalType":"bytes32"},{"name":"lastActionTimestamp","type":"uint256","internalType":"uint256"},{"name":"turnCount","type":"uint256","internalType":"uint256"},{"name":"directionClockwise","type":"bool","internalType":"bool"},{"name":"isStarted","type":"bool","internalType":"bool"}],"stateMutability":"view"},{"type":"function","name":"getActiveGames","inputs":[],"outputs":[{"name":"","type":"uint256[]","internalType":"uint256[]"}],"stateMutability":"view"},{"type":"function","name":"getGameActions","inputs":[{"name":"gameId","type":"uint256","internalType":"uint256"}],"outputs":[{"name":"","type":"tuple[]","internalType":"struct UnoGame.Action[]","components":[{"name":"player","type":"address","internalType":"address"},{"name":"actionHash","type":"bytes32","internalType":"bytes32"},{"name":"timestamp","type":"uint256","internalType":"uint256"}]}],"stateMutability":"view"},{"type":"function","name":"getGameState","inputs":[{"name":"gameId","type":"uint256","internalType":"uint256"}],"outputs":[{"name":"players","type":"address[]","internalType":"address[]"},{"name":"isActive","type":"bool","internalType":"bool"},{"name":"currentPlayerIndex","type":"uint256","internalType":"uint256"},{"name":"stateHash","type":"bytes32","internalType":"bytes32"},{"name":"lastActionTimestamp","type":"uint256","internalType":"uint256"},{"name":"turnCount","type":"uint256","internalType":"uint256"},{"name":"directionClockwise","type":"bool","internalType":"bool"},{"name":"isStarted","type":"bool","internalType":"bool"}],"stateMutability":"view"},{"type":"function","name":"isPlayerTurn","inputs":[{"name":"gameId","type":"uint256","internalType":"uint256"},{"name":"player","type":"address","internalType":"address"}],"outputs":[{"name":"","type":"bool","internalType":"bool"}],"stateMutability":"view"},{"type":"function","name":"joinGame","inputs":[{"name":"gameId","type":"uint256","internalType":"uint256"},{"name":"_joinee","type":"address","internalType":"address"}],"outputs":[],"stateMutability":"nonpayable"},{"type":"function","name":"startGame","inputs":[{"name":"gameId","type":"uint256","internalType":"uint256"},{"name":"initialStateHash","type":"bytes32","internalType":"bytes32"}],"outputs":[],"stateMutability":"nonpayable"},{"type":"function","name":"submitAction","inputs":[{"name":"gameId","type":"uint256","internalType":"uint256"},{"name":"actionHash","type":"bytes32","internalType":"bytes32"},{"name":"_actor","type":"address","internalType":"address"}],"outputs":[],"stateMutability":"nonpayable"},{"type":"event","name":"ActionSubmitted","inputs":[{"name":"gameId","type":"uint256","indexed":true,"internalType":"uint256"},{"name":"player","type":"address","indexed":false,"internalType":"address"},{"name":"actionHash","type":"bytes32","indexed":false,"internalType":"bytes32"}],"anonymous":false},{"type":"event","name":"GameCreated","inputs":[{"name":"gameId","type":"uint256","indexed":true,"internalType":"uint256"},{"name":"creator","type":"address","indexed":false,"internalType":"address"}],"anonymous":false},{"type":"event","name":"GameEnded","inputs":[{"name":"gameId","type":"uint256","indexed":true,"internalType":"uint256"}],"anonymous":false},{"type":"event","name":"GameStarted","inputs":[{"name":"gameId","type":"uint256","indexed":true,"internalType":"uint256"},{"name":"initialStateHash","type":"bytes32","indexed":false,"internalType":"bytes32"}],"anonymous":false},{"type":"event","name":"PlayerJoined","inputs":[{"name":"gameId","type":"uint256","indexed":true,"internalType":"uint256"},{"name":"player","type":"address","indexed":false,"internalType":"address"}],"anonymous":false},{"type":"error","name":"ReentrancyGuardReentrantCall","inputs":[]}],"bytecode":{"object":"0x6080604052348015600f57600080fd5b506001600055611297806100246000396000f3fe608060405234801561001057600080fd5b50600436106100a95760003560e01c8063865141311161007157806386514131146101bb578063b5870a68146101ce578063b71d79f3146101ee578063bfb51ac914610226578063ead00e0214610239578063ffde0c741461024c57600080fd5b8063117a5b90146100ae5780631b76929c1461014d5780633a240e9814610162578063474d0b5a146101855780637b01f0fd146101a6575b600080fd5b6101096100bc366004610f1e565b60036020819052600091825260409091208054600282015492820154600483015460058401546006850154600790950154939560ff90811695939492939192808216916101009091041688565b604080519889529615156020890152958701949094526060860192909252608085015260a0840152151560c0830152151560e0820152610100015b60405180910390f35b610155610273565b6040516101449190610f37565b610175610170366004610f91565b6102cb565b6040519015158152602001610144565b610198610193366004610fbd565b61031f565b604051908152602001610144565b6101b96101b4366004610fdf565b61051d565b005b6101b96101c9366004610f91565b6106a4565b6101e16101dc366004610f1e565b610761565b6040516101449190611014565b6102016101fc36600461106e565b61088f565b604080516001600160a01b039094168452602084019290925290820152606001610144565b6101b961023436600461106e565b6108db565b6101b9610247366004610f91565b6109e3565b61025f61025a366004610f1e565b610aee565b604051610144989796959493929190611090565b606060028054806020026020016040519081016040528092919081815260200182805480156102c157602002820191906000526020600020905b8154815260200190600101908083116102ad575b5050505050905090565b6000828152600360208190526040822090810154600190910180546001600160a01b0385169290811061030057610300611123565b6000918252602090912001546001600160a01b03161490505b92915050565b6000610329610c50565b600180549060006103398361114f565b909155505060018054604080514260208083018290524483850152606088811b6bffffffffffffffffffffffff191690840152835180840360540181526074840185528051908201206094840186905260b48085018290528551808603909101815260d485018087528151918401919091206101f48601875287825286516000808252818601895260f4880191825261011488018b90526101348801819052610154880183905261017488019690965261019487018690526101b487018a90526101d4909601859052878552600384529590932083518155935180519697919693949361042e93928501929190910190610ea4565b506040828101516002838101805460ff191692151592909217909155606084015160038401556080840151600484015560a0840151600584015560c0840151600684015560e0840151600790930180546101009586015161ffff1990911694151561ff001916949094179315159094029290921790925580546001810182556000919091527f405787fa12a823e0f2b7631cc41b3ba8828b3321ca811111fa75cd3aa3bb5ace018490555133815283907fc3e0f84839dc888c892a013d10c8f9d6dc05a21a879d0ce468ca558013e9121c9060200160405180910390a25050600160005592915050565b919050565b610525610c50565b6000838152600360205260409020600281015460ff166105605760405162461bcd60e51b815260040161055790611168565b60405180910390fd5b61056a84836102cb565b6105a65760405162461bcd60e51b815260206004820152600d60248201526c2737ba103cb7bab9103a3ab93760991b6044820152606401610557565b6004810154604080516020810192909252810184905260600160408051808303601f19018152828252805160209182012060048581019190915560008881529082528281206060850184526001600160a01b03878116865283860189815242958701958652825460018082018555938552949093209551600390940290950180546001600160a01b0319169390951692909217845551908301555160029091015561065084610c7a565b604080516001600160a01b03841681526020810185905285917f8188a33f6aa922cc621fb93150a58aa3c90ccacd19eaae34b52797ffc5d3d22f910160405180910390a25061069f6001600055565b505050565b6000828152600360205260409020600281015460ff166106d65760405162461bcd60e51b815260040161055790611168565b6106e083836102cb565b61071c5760405162461bcd60e51b815260206004820152600d60248201526c2737ba103cb7bab9103a3ab93760991b6044820152606401610557565b60028101805460ff1916905561073183610da4565b60405183907fce24807f7e4b60b4e641462f13029fa5e5f79075bbc3f8e5cd43ecd19661d76090600090a2505050565b606060008211801561077557506001548211155b6107b35760405162461bcd60e51b815260206004820152600f60248201526e125b9d985b1a590819d85b59481251608a1b6044820152606401610557565b60008281526003602052604090205482146108065760405162461bcd60e51b815260206004820152601360248201527211d85b5948191bd95cc81b9bdd08195e1a5cdd606a1b6044820152606401610557565b600082815260046020908152604080832080548251818502810185019093528083529193909284015b82821015610884576000848152602090819020604080516060810182526003860290920180546001600160a01b031683526001808201548486015260029091015491830191909152908352909201910161082f565b505050509050919050565b600460205281600052604060002081815481106108ab57600080fd5b60009182526020909120600390910201805460018201546002909201546001600160a01b03909116935090915083565b60008281526003602052604090206007810154610100900460ff161561093a5760405162461bcd60e51b815260206004820152601460248201527311d85b5948185b1c9958591e481cdd185c9d195960621b6044820152606401610557565b6001810154600211156109845760405162461bcd60e51b81526020600482015260126024820152714e6f7420656e6f75676820706c617965727360701b6044820152606401610557565b60078101805461ff0019166101001790556004810182905542600582015560405183907fb4a411a01bc386893734d83e17411a973f9dbb12732aff7a88d6964f1360b160906109d69085815260200190565b60405180910390a2505050565b6109eb610c50565b60008281526003602052604090206002015460ff16610a1c5760405162461bcd60e51b815260040161055790611168565b600082815260036020526040902060010154600a11610a6c5760405162461bcd60e51b815260206004820152600c60248201526b11d85b59481a5cc8199d5b1b60a21b6044820152606401610557565b600082815260036020908152604080832060019081018054918201815584529282902090920180546001600160a01b0319166001600160a01b038516908117909155915191825283917f87969bc7faf902221a147b95ceba76e011c5efb0339a0a8ee7a2bb82d9cfbbd6910160405180910390a2610aea6001600055565b5050565b606060008060008060008060008089118015610b0c57506001548911155b610b4a5760405162461bcd60e51b815260206004820152600f60248201526e125b9d985b1a590819d85b59481251608a1b6044820152606401610557565b600089815260036020526040902080548a14610b9e5760405162461bcd60e51b815260206004820152601360248201527211d85b5948191bd95cc81b9bdd08195e1a5cdd606a1b6044820152606401610557565b60028101546003820154600483015460058401546006850154600786015460018701805460408051602080840282018101909252828152929860ff9081169897969594808216946101009091049091169290918a9190830182828015610c2d57602002820191906000526020600020905b81546001600160a01b03168152600190910190602001808311610c0f575b505050505097509850985098509850985098509850985050919395975091939597565b600260005403610c7357604051633ee5aeb560e01b815260040160405180910390fd5b6002600055565b60008181526003602052604081206006810180549192610c998361114f565b909155505060018082015460038301549091610cb59190611194565b610cbf91906111a7565b60038201554260058201556040805161012081018252825481526001830180548351602082810282018101909552818152610d9b948693818601939091830182828015610d3557602002820191906000526020600020905b81546001600160a01b03168152600190910190602001808311610d17575b5050509183525050600282015460ff90811615156020830152600383015460408301526004830154606083015260058301546080830152600683015460a0830152600790920154808316151560c08301526101009004909116151560e090910152610e52565b60049091015550565b60005b600254811015610aea578160028281548110610dc557610dc5611123565b906000526020600020015403610e4a5760028054610de5906001906111c9565b81548110610df557610df5611123565b906000526020600020015460028281548110610e1357610e13611123565b6000918252602090912001556002805480610e3057610e306111dc565b600190038181906000526020600020016000905590555050565b600101610da7565b8051602080830151604080850151606086015160a087015160c088015160e08901519451600098610e879890979691016111f2565b604051602081830303815290604052805190602001209050919050565b828054828255906000526020600020908101928215610ef9579160200282015b82811115610ef957825182546001600160a01b0319166001600160a01b03909116178255602090920191600190910190610ec4565b50610f05929150610f09565b5090565b5b80821115610f055760008155600101610f0a565b600060208284031215610f3057600080fd5b5035919050565b602080825282518282018190526000918401906040840190835b81811015610f6f578351835260209384019390920191600101610f51565b509095945050505050565b80356001600160a01b038116811461051857600080fd5b60008060408385031215610fa457600080fd5b82359150610fb460208401610f7a565b90509250929050565b600060208284031215610fcf57600080fd5b610fd882610f7a565b9392505050565b600080600060608486031215610ff457600080fd5b833592506020840135915061100b60408501610f7a565b90509250925092565b602080825282518282018190526000918401906040840190835b81811015610f6f57835180516001600160a01b0316845260208082015181860152604091820151918501919091529093019260609092019160010161102e565b6000806040838503121561108157600080fd5b50508035926020909101359150565b610100808252895190820181905260009060208b0190610120840190835b818110156110d55783516001600160a01b03168352602093840193909201916001016110ae565b50508a1515602085015291506110e89050565b8760408301528660608301528560808301528460a083015261110e60c083018515159052565b82151560e08301529998505050505050505050565b634e487b7160e01b600052603260045260246000fd5b634e487b7160e01b600052601160045260246000fd5b60006001820161116157611161611139565b5060010190565b60208082526012908201527147616d65206973206e6f742061637469766560701b604082015260600190565b8082018082111561031957610319611139565b6000826111c457634e487b7160e01b600052601260045260246000fd5b500690565b8181038181111561031957610319611139565b634e487b7160e01b600052603160045260246000fd5b878152600060208201885160208a0160005b8281101561122b5781516001600160a01b0316845260209384019390910190600101611204565b50505096151560f890811b885260018801969096525050602185019290925260418401521515901b60618201526062019291505056fea2646970667358221220683df534d2471387fb64076404685a98f0abe8765b78c17e3ef3f7b3e74951cc64736f6c634300081a0033","linkReferences":{}},"methodIdentifiers":{"createGame(address)":"474d0b5a","endGame(uint256,address)":"86514131","gameActions(uint256,uint256)":"b71d79f3","games(uint256)":"117a5b90","getActiveGames()":"1b76929c","getGameActions(uint256)":"b5870a68","getGameState(uint256)":"ffde0c74","isPlayerTurn(uint256,address)":"3a240e98","joinGame(uint256,address)":"ead00e02","startGame(uint256,bytes32)":"bfb51ac9","submitAction(uint256,bytes32,address)":"7b01f0fd"},"id":21}