{
    "abi": [
        {
            "type": "function",
            "name": "createGame",
            "inputs": [
                {
                    "name": "_creator",
                    "type": "address",
                    "internalType": "address"
                }
            ],
            "outputs": [
                {
                    "name": "",
                    "type": "uint256",
                    "internalType": "uint256"
                }
            ],
            "stateMutability": "nonpayable"
        },
        {
            "type": "function",
            "name": "endGame",
            "inputs": [
                {
                    "name": "gameId",
                    "type": "uint256",
                    "internalType": "uint256"
                },
                {
                    "name": "_actor",
                    "type": "address",
                    "internalType": "address"
                }
            ],
            "outputs": [],
            "stateMutability": "nonpayable"
        },
        {
            "type": "function",
            "name": "gameActions",
            "inputs": [
                {
                    "name": "",
                    "type": "uint256",
                    "internalType": "uint256"
                },
                {
                    "name": "",
                    "type": "uint256",
                    "internalType": "uint256"
                }
            ],
            "outputs": [
                {
                    "name": "player",
                    "type": "address",
                    "internalType": "address"
                },
                {
                    "name": "actionHash",
                    "type": "bytes32",
                    "internalType": "bytes32"
                },
                {
                    "name": "timestamp",
                    "type": "uint256",
                    "internalType": "uint256"
                }
            ],
            "stateMutability": "view"
        },
        {
            "type": "function",
            "name": "games",
            "inputs": [
                {
                    "name": "",
                    "type": "uint256",
                    "internalType": "uint256"
                }
            ],
            "outputs": [
                {
                    "name": "id",
                    "type": "uint256",
                    "internalType": "uint256"
                },
                {
                    "name": "isActive",
                    "type": "bool",
                    "internalType": "bool"
                },
                {
                    "name": "currentPlayerIndex",
                    "type": "uint256",
                    "internalType": "uint256"
                },
                {
                    "name": "stateHash",
                    "type": "bytes32",
                    "internalType": "bytes32"
                },
                {
                    "name": "lastActionTimestamp",
                    "type": "uint256",
                    "internalType": "uint256"
                },
                {
                    "name": "turnCount",
                    "type": "uint256",
                    "internalType": "uint256"
                },
                {
                    "name": "directionClockwise",
                    "type": "bool",
                    "internalType": "bool"
                },
                {
                    "name": "isStarted",
                    "type": "bool",
                    "internalType": "bool"
                }
            ],
            "stateMutability": "view"
        },
        {
            "type": "function",
            "name": "getActiveGames",
            "inputs": [],
            "outputs": [
                {
                    "name": "",
                    "type": "uint256[]",
                    "internalType": "uint256[]"
                }
            ],
            "stateMutability": "view"
        },
        {
            "type": "function",
            "name": "getGameActions",
            "inputs": [
                {
                    "name": "gameId",
                    "type": "uint256",
                    "internalType": "uint256"
                }
            ],
            "outputs": [
                {
                    "name": "",
                    "type": "tuple[]",
                    "internalType": "struct UnoGame.Action[]",
                    "components": [
                        {
                            "name": "player",
                            "type": "address",
                            "internalType": "address"
                        },
                        {
                            "name": "actionHash",
                            "type": "bytes32",
                            "internalType": "bytes32"
                        },
                        {
                            "name": "timestamp",
                            "type": "uint256",
                            "internalType": "uint256"
                        }
                    ]
                }
            ],
            "stateMutability": "view"
        },
        {
            "type": "function",
            "name": "getGameState",
            "inputs": [
                {
                    "name": "gameId",
                    "type": "uint256",
                    "internalType": "uint256"
                }
            ],
            "outputs": [
                {
                    "name": "players",
                    "type": "address[]",
                    "internalType": "address[]"
                },
                {
                    "name": "isActive",
                    "type": "bool",
                    "internalType": "bool"
                },
                {
                    "name": "currentPlayerIndex",
                    "type": "uint256",
                    "internalType": "uint256"
                },
                {
                    "name": "stateHash",
                    "type": "bytes32",
                    "internalType": "bytes32"
                },
                {
                    "name": "lastActionTimestamp",
                    "type": "uint256",
                    "internalType": "uint256"
                },
                {
                    "name": "turnCount",
                    "type": "uint256",
                    "internalType": "uint256"
                },
                {
                    "name": "directionClockwise",
                    "type": "bool",
                    "internalType": "bool"
                },
                {
                    "name": "isStarted",
                    "type": "bool",
                    "internalType": "bool"
                }
            ],
            "stateMutability": "view"
        },
        {
            "type": "function",
            "name": "isPlayerTurn",
            "inputs": [
                {
                    "name": "gameId",
                    "type": "uint256",
                    "internalType": "uint256"
                },
                {
                    "name": "player",
                    "type": "address",
                    "internalType": "address"
                }
            ],
            "outputs": [
                {
                    "name": "",
                    "type": "bool",
                    "internalType": "bool"
                }
            ],
            "stateMutability": "view"
        },
        {
            "type": "function",
            "name": "joinGame",
            "inputs": [
                {
                    "name": "gameId",
                    "type": "uint256",
                    "internalType": "uint256"
                },
                {
                    "name": "_joinee",
                    "type": "address",
                    "internalType": "address"
                }
            ],
            "outputs": [],
            "stateMutability": "nonpayable"
        },
        {
            "type": "function",
            "name": "startGame",
            "inputs": [
                {
                    "name": "gameId",
                    "type": "uint256",
                    "internalType": "uint256"
                },
                {
                    "name": "initialStateHash",
                    "type": "bytes32",
                    "internalType": "bytes32"
                }
            ],
            "outputs": [],
            "stateMutability": "nonpayable"
        },
        {
            "type": "function",
            "name": "submitAction",
            "inputs": [
                {
                    "name": "gameId",
                    "type": "uint256",
                    "internalType": "uint256"
                },
                {
                    "name": "actionHash",
                    "type": "bytes32",
                    "internalType": "bytes32"
                },
                {
                    "name": "_actor",
                    "type": "address",
                    "internalType": "address"
                }
            ],
            "outputs": [],
            "stateMutability": "nonpayable"
        },
        {
            "type": "event",
            "name": "ActionSubmitted",
            "inputs": [
                {
                    "name": "gameId",
                    "type": "uint256",
                    "indexed": true,
                    "internalType": "uint256"
                },
                {
                    "name": "player",
                    "type": "address",
                    "indexed": false,
                    "internalType": "address"
                },
                {
                    "name": "actionHash",
                    "type": "bytes32",
                    "indexed": false,
                    "internalType": "bytes32"
                }
            ],
            "anonymous": false
        },
        {
            "type": "event",
            "name": "GameCreated",
            "inputs": [
                {
                    "name": "gameId",
                    "type": "uint256",
                    "indexed": true,
                    "internalType": "uint256"
                },
                {
                    "name": "creator",
                    "type": "address",
                    "indexed": false,
                    "internalType": "address"
                }
            ],
            "anonymous": false
        },
        {
            "type": "event",
            "name": "GameEnded",
            "inputs": [
                {
                    "name": "gameId",
                    "type": "uint256",
                    "indexed": true,
                    "internalType": "uint256"
                }
            ],
            "anonymous": false
        },
        {
            "type": "event",
            "name": "GameStarted",
            "inputs": [
                {
                    "name": "gameId",
                    "type": "uint256",
                    "indexed": true,
                    "internalType": "uint256"
                },
                {
                    "name": "initialStateHash",
                    "type": "bytes32",
                    "indexed": false,
                    "internalType": "bytes32"
                }
            ],
            "anonymous": false
        },
        {
            "type": "event",
            "name": "PlayerJoined",
            "inputs": [
                {
                    "name": "gameId",
                    "type": "uint256",
                    "indexed": true,
                    "internalType": "uint256"
                },
                {
                    "name": "player",
                    "type": "address",
                    "indexed": false,
                    "internalType": "address"
                }
            ],
            "anonymous": false
        },
        {
            "type": "error",
            "name": "ReentrancyGuardReentrantCall",
            "inputs": []
        }
    ],
    "bytecode": {
        "object": "0x6080604052348015600f57600080fd5b5060016000556112a0806100246000396000f3fe608060405234801561001057600080fd5b50600436106100a95760003560e01c8063865141311161007157806386514131146101bb578063b5870a68146101ce578063b71d79f3146101ee578063bfb51ac914610226578063ead00e0214610239578063ffde0c741461024c57600080fd5b8063117a5b90146100ae5780631b76929c1461014d5780633a240e9814610162578063474d0b5a146101855780637b01f0fd146101a6575b600080fd5b6101096100bc366004610f27565b60036020819052600091825260409091208054600282015492820154600483015460058401546006850154600790950154939560ff90811695939492939192808216916101009091041688565b604080519889529615156020890152958701949094526060860192909252608085015260a0840152151560c0830152151560e0820152610100015b60405180910390f35b610155610273565b6040516101449190610f40565b610175610170366004610f9a565b6102cb565b6040519015158152602001610144565b610198610193366004610fc6565b61031f565b604051908152602001610144565b6101b96101b4366004610fe8565b610526565b005b6101b96101c9366004610f9a565b6106ad565b6101e16101dc366004610f27565b61076a565b604051610144919061101d565b6102016101fc366004611077565b610898565b604080516001600160a01b039094168452602084019290925290820152606001610144565b6101b9610234366004611077565b6108e4565b6101b9610247366004610f9a565b6109ec565b61025f61025a366004610f27565b610af7565b604051610144989796959493929190611099565b606060028054806020026020016040519081016040528092919081815260200182805480156102c157602002820191906000526020600020905b8154815260200190600101908083116102ad575b5050505050905090565b6000828152600360208190526040822090810154600190910180546001600160a01b038516929081106103005761030061112c565b6000918252602090912001546001600160a01b03161490505b92915050565b6000610329610c59565b6001805490600061033983611158565b909155505060018054604080514260208083018290524483850152606088811b6bffffffffffffffffffffffff191690840152835180840360540181526074840185528051908201206094840186905260b48085018290528551808603909101815260d485018087528151918401919091206101f48601875287825286516000808252818601895260f4880191825261011488018b90526101348801819052610154880183905261017488019690965261019487018690526101b487018a90526101d4909601859052878552600384529590932083518155935180519697919693949361042e93928501929190910190610ead565b506040828101516002838101805460ff191692151592909217909155606084015160038401556080840151600484015560a0840151600584015560c0840151600684015560e0840151600790930180546101009586015161ffff1990911694151561ff001916949094179315159094029290921790925580546001810182556000919091527f405787fa12a823e0f2b7631cc41b3ba8828b3321ca811111fa75cd3aa3bb5ace01849055516001600160a01b038616815283907fc3e0f84839dc888c892a013d10c8f9d6dc05a21a879d0ce468ca558013e9121c9060200160405180910390a25050600160005592915050565b919050565b61052e610c59565b6000838152600360205260409020600281015460ff166105695760405162461bcd60e51b815260040161056090611171565b60405180910390fd5b61057384836102cb565b6105af5760405162461bcd60e51b815260206004820152600d60248201526c2737ba103cb7bab9103a3ab93760991b6044820152606401610560565b6004810154604080516020810192909252810184905260600160408051808303601f19018152828252805160209182012060048581019190915560008881529082528281206060850184526001600160a01b03878116865283860189815242958701958652825460018082018555938552949093209551600390940290950180546001600160a01b0319169390951692909217845551908301555160029091015561065984610c83565b604080516001600160a01b03841681526020810185905285917f8188a33f6aa922cc621fb93150a58aa3c90ccacd19eaae34b52797ffc5d3d22f910160405180910390a2506106a86001600055565b505050565b6000828152600360205260409020600281015460ff166106df5760405162461bcd60e51b815260040161056090611171565b6106e983836102cb565b6107255760405162461bcd60e51b815260206004820152600d60248201526c2737ba103cb7bab9103a3ab93760991b6044820152606401610560565b60028101805460ff1916905561073a83610dad565b60405183907fce24807f7e4b60b4e641462f13029fa5e5f79075bbc3f8e5cd43ecd19661d76090600090a2505050565b606060008211801561077e57506001548211155b6107bc5760405162461bcd60e51b815260206004820152600f60248201526e125b9d985b1a590819d85b59481251608a1b6044820152606401610560565b600082815260036020526040902054821461080f5760405162461bcd60e51b815260206004820152601360248201527211d85b5948191bd95cc81b9bdd08195e1a5cdd606a1b6044820152606401610560565b600082815260046020908152604080832080548251818502810185019093528083529193909284015b8282101561088d576000848152602090819020604080516060810182526003860290920180546001600160a01b0316835260018082015484860152600290910154918301919091529083529092019101610838565b505050509050919050565b600460205281600052604060002081815481106108b457600080fd5b60009182526020909120600390910201805460018201546002909201546001600160a01b03909116935090915083565b60008281526003602052604090206007810154610100900460ff16156109435760405162461bcd60e51b815260206004820152601460248201527311d85b5948185b1c9958591e481cdd185c9d195960621b6044820152606401610560565b60018101546002111561098d5760405162461bcd60e51b81526020600482015260126024820152714e6f7420656e6f75676820706c617965727360701b6044820152606401610560565b60078101805461ff0019166101001790556004810182905542600582015560405183907fb4a411a01bc386893734d83e17411a973f9dbb12732aff7a88d6964f1360b160906109df9085815260200190565b60405180910390a2505050565b6109f4610c59565b60008281526003602052604090206002015460ff16610a255760405162461bcd60e51b815260040161056090611171565b600082815260036020526040902060010154600a11610a755760405162461bcd60e51b815260206004820152600c60248201526b11d85b59481a5cc8199d5b1b60a21b6044820152606401610560565b600082815260036020908152604080832060019081018054918201815584529282902090920180546001600160a01b0319166001600160a01b038516908117909155915191825283917f87969bc7faf902221a147b95ceba76e011c5efb0339a0a8ee7a2bb82d9cfbbd6910160405180910390a2610af36001600055565b5050565b606060008060008060008060008089118015610b1557506001548911155b610b535760405162461bcd60e51b815260206004820152600f60248201526e125b9d985b1a590819d85b59481251608a1b6044820152606401610560565b600089815260036020526040902080548a14610ba75760405162461bcd60e51b815260206004820152601360248201527211d85b5948191bd95cc81b9bdd08195e1a5cdd606a1b6044820152606401610560565b60028101546003820154600483015460058401546006850154600786015460018701805460408051602080840282018101909252828152929860ff9081169897969594808216946101009091049091169290918a9190830182828015610c3657602002820191906000526020600020905b81546001600160a01b03168152600190910190602001808311610c18575b505050505097509850985098509850985098509850985050919395975091939597565b600260005403610c7c57604051633ee5aeb560e01b815260040160405180910390fd5b6002600055565b60008181526003602052604081206006810180549192610ca283611158565b909155505060018082015460038301549091610cbe919061119d565b610cc891906111b0565b60038201554260058201556040805161012081018252825481526001830180548351602082810282018101909552818152610da4948693818601939091830182828015610d3e57602002820191906000526020600020905b81546001600160a01b03168152600190910190602001808311610d20575b5050509183525050600282015460ff90811615156020830152600383015460408301526004830154606083015260058301546080830152600683015460a0830152600790920154808316151560c08301526101009004909116151560e090910152610e5b565b60049091015550565b60005b600254811015610af3578160028281548110610dce57610dce61112c565b906000526020600020015403610e535760028054610dee906001906111d2565b81548110610dfe57610dfe61112c565b906000526020600020015460028281548110610e1c57610e1c61112c565b6000918252602090912001556002805480610e3957610e396111e5565b600190038181906000526020600020016000905590555050565b600101610db0565b8051602080830151604080850151606086015160a087015160c088015160e08901519451600098610e909890979691016111fb565b604051602081830303815290604052805190602001209050919050565b828054828255906000526020600020908101928215610f02579160200282015b82811115610f0257825182546001600160a01b0319166001600160a01b03909116178255602090920191600190910190610ecd565b50610f0e929150610f12565b5090565b5b80821115610f0e5760008155600101610f13565b600060208284031215610f3957600080fd5b5035919050565b602080825282518282018190526000918401906040840190835b81811015610f78578351835260209384019390920191600101610f5a565b509095945050505050565b80356001600160a01b038116811461052157600080fd5b60008060408385031215610fad57600080fd5b82359150610fbd60208401610f83565b90509250929050565b600060208284031215610fd857600080fd5b610fe182610f83565b9392505050565b600080600060608486031215610ffd57600080fd5b833592506020840135915061101460408501610f83565b90509250925092565b602080825282518282018190526000918401906040840190835b81811015610f7857835180516001600160a01b03168452602080820151818601526040918201519185019190915290930192606090920191600101611037565b6000806040838503121561108a57600080fd5b50508035926020909101359150565b610100808252895190820181905260009060208b0190610120840190835b818110156110de5783516001600160a01b03168352602093840193909201916001016110b7565b50508a1515602085015291506110f19050565b8760408301528660608301528560808301528460a083015261111760c083018515159052565b82151560e08301529998505050505050505050565b634e487b7160e01b600052603260045260246000fd5b634e487b7160e01b600052601160045260246000fd5b60006001820161116a5761116a611142565b5060010190565b60208082526012908201527147616d65206973206e6f742061637469766560701b604082015260600190565b8082018082111561031957610319611142565b6000826111cd57634e487b7160e01b600052601260045260246000fd5b500690565b8181038181111561031957610319611142565b634e487b7160e01b600052603160045260246000fd5b878152600060208201885160208a0160005b828110156112345781516001600160a01b031684526020938401939091019060010161120d565b50505096151560f890811b885260018801969096525050602185019290925260418401521515901b60618201526062019291505056fea2646970667358221220ddcada1d135bb22e30a9824c58451ed199923eaca0bd318b70abf92fb018dee764736f6c634300081c0033",
        "linkReferences": {}
    },
    "methodIdentifiers": {
        "createGame(address)": "474d0b5a",
        "endGame(uint256,address)": "86514131",
        "gameActions(uint256,uint256)": "b71d79f3",
        "games(uint256)": "117a5b90",
        "getActiveGames()": "1b76929c",
        "getGameActions(uint256)": "b5870a68",
        "getGameState(uint256)": "ffde0c74",
        "isPlayerTurn(uint256,address)": "3a240e98",
        "joinGame(uint256,address)": "ead00e02",
        "startGame(uint256,bytes32)": "bfb51ac9",
        "submitAction(uint256,bytes32,address)": "7b01f0fd"
    },
    "id": 21
}