{"abi":[{"type":"function","name":"createGame","inputs":[],"outputs":[{"name":"","type":"uint256","internalType":"uint256"}],"stateMutability":"nonpayable"},{"type":"function","name":"endGame","inputs":[{"name":"gameId","type":"uint256","internalType":"uint256"}],"outputs":[],"stateMutability":"nonpayable"},{"type":"function","name":"gameActions","inputs":[{"name":"","type":"uint256","internalType":"uint256"},{"name":"","type":"uint256","internalType":"uint256"}],"outputs":[{"name":"player","type":"address","internalType":"address"},{"name":"actionHash","type":"bytes32","internalType":"bytes32"},{"name":"timestamp","type":"uint256","internalType":"uint256"}],"stateMutability":"view"},{"type":"function","name":"games","inputs":[{"name":"","type":"uint256","internalType":"uint256"}],"outputs":[{"name":"id","type":"uint256","internalType":"uint256"},{"name":"isActive","type":"bool","internalType":"bool"},{"name":"currentPlayerIndex","type":"uint256","internalType":"uint256"},{"name":"initialStateHash","type":"bytes32","internalType":"bytes32"},{"name":"lastActionTimestamp","type":"uint256","internalType":"uint256"},{"name":"turnCount","type":"uint256","internalType":"uint256"},{"name":"directionClockwise","type":"bool","internalType":"bool"},{"name":"seed","type":"uint256","internalType":"uint256"}],"stateMutability":"view"},{"type":"function","name":"getActiveGames","inputs":[],"outputs":[{"name":"","type":"uint256[]","internalType":"uint256[]"}],"stateMutability":"view"},{"type":"function","name":"getGameActions","inputs":[{"name":"gameId","type":"uint256","internalType":"uint256"}],"outputs":[{"name":"","type":"tuple[]","internalType":"struct UnoGame.Action[]","components":[{"name":"player","type":"address","internalType":"address"},{"name":"actionHash","type":"bytes32","internalType":"bytes32"},{"name":"timestamp","type":"uint256","internalType":"uint256"}]}],"stateMutability":"view"},{"type":"function","name":"getGameState","inputs":[{"name":"gameId","type":"uint256","internalType":"uint256"}],"outputs":[{"name":"players","type":"address[]","internalType":"address[]"},{"name":"isActive","type":"bool","internalType":"bool"},{"name":"currentPlayerIndex","type":"uint256","internalType":"uint256"},{"name":"initialStateHash","type":"bytes32","internalType":"bytes32"},{"name":"lastActionTimestamp","type":"uint256","internalType":"uint256"},{"name":"turnCount","type":"uint256","internalType":"uint256"},{"name":"directionClockwise","type":"bool","internalType":"bool"},{"name":"seed","type":"uint256","internalType":"uint256"}],"stateMutability":"view"},{"type":"function","name":"isPlayerTurn","inputs":[{"name":"gameId","type":"uint256","internalType":"uint256"},{"name":"player","type":"address","internalType":"address"}],"outputs":[{"name":"","type":"bool","internalType":"bool"}],"stateMutability":"view"},{"type":"function","name":"joinGame","inputs":[{"name":"gameId","type":"uint256","internalType":"uint256"}],"outputs":[],"stateMutability":"nonpayable"},{"type":"function","name":"submitAction","inputs":[{"name":"gameId","type":"uint256","internalType":"uint256"},{"name":"actionHash","type":"bytes32","internalType":"bytes32"},{"name":"isReverse","type":"bool","internalType":"bool"},{"name":"isSkip","type":"bool","internalType":"bool"},{"name":"isDrawTwo","type":"bool","internalType":"bool"},{"name":"isWildDrawFour","type":"bool","internalType":"bool"}],"outputs":[],"stateMutability":"nonpayable"},{"type":"event","name":"ActionSubmitted","inputs":[{"name":"gameId","type":"uint256","indexed":true,"internalType":"uint256"},{"name":"player","type":"address","indexed":false,"internalType":"address"},{"name":"actionHash","type":"bytes32","indexed":false,"internalType":"bytes32"}],"anonymous":false},{"type":"event","name":"GameCreated","inputs":[{"name":"gameId","type":"uint256","indexed":true,"internalType":"uint256"},{"name":"creator","type":"address","indexed":false,"internalType":"address"}],"anonymous":false},{"type":"event","name":"GameEnded","inputs":[{"name":"gameId","type":"uint256","indexed":true,"internalType":"uint256"}],"anonymous":false},{"type":"event","name":"PlayerJoined","inputs":[{"name":"gameId","type":"uint256","indexed":true,"internalType":"uint256"},{"name":"player","type":"address","indexed":false,"internalType":"address"}],"anonymous":false},{"type":"error","name":"ReentrancyGuardReentrantCall","inputs":[]}],"bytecode":{"object":"0x6080604052348015600f57600080fd5b50600160005561103a806100246000396000f3fe608060405234801561001057600080fd5b506004361061009e5760003560e01c8063b71d79f311610066578063b71d79f3146101ac578063d0399bb8146101e4578063efaa55a0146101f9578063f7a432e41461020c578063ffde0c741461021f57600080fd5b8063117a5b90146100a35780631b76929c1461013e5780633a240e98146101535780637255d72914610176578063b5870a681461018c575b600080fd5b6100fc6100b1366004610d15565b600360208190526000918252604090912080546002820154928201546004830154600584015460068501546007860154600890960154949660ff908116969495939492939192169088565b604080519889529615156020890152958701949094526060860192909252608085015260a0840152151560c083015260e0820152610100015b60405180910390f35b610146610246565b6040516101359190610d2e565b610166610161366004610d71565b61029e565b6040519015158152602001610135565b61017e6102f2565b604051908152602001610135565b61019f61019a366004610d15565b6104c8565b6040516101359190610dad565b6101bf6101ba366004610e07565b61055d565b604080516001600160a01b039094168452602084019290925290820152606001610135565b6101f76101f2366004610d15565b6105a9565b005b6101f7610207366004610d15565b610679565b6101f761021a366004610e3e565b61079c565b61023261022d366004610d15565b61090e565b604051610135989796959493929190610ea4565b6060600280548060200260200160405190810160405280929190818152602001828054801561029457602002820191906000526020600020905b815481526020019060010190808311610280575b5050505050905090565b6000828152600360208190526040822090810154600190910180546001600160a01b038516929081106102d3576102d3610f35565b6000918252602090912001546001600160a01b03161490505b92915050565b60006102fc6109ea565b6001805490600061030c83610f61565b909155505060015460408051610120810182528281528151600080825260208281019094529192830191508152602001600115158152602001600081526020016000801b8152602001428152602001600081526020016001151581526020014244336040516020016103a393929190928352602083019190915260601b6bffffffffffffffffffffffff1916604082015260540190565b60408051601f198184030181529181528151602092830120909252600084815260038252919091208251815582820151805191926103e992600185019290910190610c9b565b506040828101516002838101805492151560ff19938416179055606085015160038501556080850151600485015560a0850151600585015560c0850151600685015560e085015160078501805491151591909316179091556101009093015160089092019190915581546001810183556000929092527f405787fa12a823e0f2b7631cc41b3ba8828b3321ca811111fa75cd3aa3bb5ace9091018290555133815281907fc3e0f84839dc888c892a013d10c8f9d6dc05a21a879d0ce468ca558013e9121c9060200160405180910390a290506104c56001600055565b90565b606060046000838152602001908152602001600020805480602002602001604051908101604052809291908181526020016000905b82821015610552576000848152602090819020604080516060810182526003860290920180546001600160a01b03168352600180820154848601526002909101549183019190915290835290920191016104fd565b505050509050919050565b6004602052816000526040600020818154811061057957600080fd5b60009182526020909120600390910201805460018201546002909201546001600160a01b03909116935090915083565b60008181526003602052604090206002015460ff166105e35760405162461bcd60e51b81526004016105da90610f7a565b60405180910390fd5b6105ed813361029e565b6106295760405162461bcd60e51b815260206004820152600d60248201526c2737ba103cb7bab9103a3ab93760991b60448201526064016105da565b6000818152600360205260409020600201805460ff1916905561064b81610a14565b60405181907fce24807f7e4b60b4e641462f13029fa5e5f79075bbc3f8e5cd43ecd19661d76090600090a250565b6106816109ea565b60008181526003602052604090206002015460ff166106b25760405162461bcd60e51b81526004016105da90610f7a565b600081815260036020526040902060010154600a116107025760405162461bcd60e51b815260206004820152600c60248201526b11d85b59481a5cc8199d5b1b60a21b60448201526064016105da565b600081815260036020908152604080832060019081018054918201815584529282902090920180546001600160a01b03191633908117909155915191825282917f87969bc7faf902221a147b95ceba76e011c5efb0339a0a8ee7a2bb82d9cfbbd6910160405180910390a260008181526003602052604090206001015460040361078f5761078f81610ac6565b6107996001600055565b50565b6107a46109ea565b60008681526003602052604090206002015460ff166107d55760405162461bcd60e51b81526004016105da90610f7a565b6107df863361029e565b61081b5760405162461bcd60e51b815260206004820152600d60248201526c2737ba103cb7bab9103a3ab93760991b60448201526064016105da565b60008681526004602052604081205490036108455760008681526003602052604090206004018590555b600086815260046020908152604080832081516060810183523381528084018a81524293820193845282546001808201855593875294909520905160039094020180546001600160a01b0319166001600160a01b0390941693909317835592519282019290925590516002909101556108c18685858585610b75565b604080513381526020810187905287917f8188a33f6aa922cc621fb93150a58aa3c90ccacd19eaae34b52797ffc5d3d22f910160405180910390a26109066001600055565b505050505050565b6060600080600080600080600080600360008b81526020019081526020016000209050806001018160020160009054906101000a900460ff1682600301548360040154846005015485600601548660070160009054906101000a900460ff168760080154878054806020026020016040519081016040528092919081815260200182805480156109c757602002820191906000526020600020905b81546001600160a01b031681526001909101906020018083116109a9575b505050505097509850985098509850985098509850985050919395975091939597565b600260005403610a0d57604051633ee5aeb560e01b815260040160405180910390fd5b6002600055565b60005b600254811015610ac2578160028281548110610a3557610a35610f35565b906000526020600020015403610aba5760028054610a5590600190610fa6565b81548110610a6557610a65610f35565b906000526020600020015460028281548110610a8357610a83610f35565b6000918252602090912001556002805480610aa057610aa0610fb9565b600190038181906000526020600020016000905590555050565b600101610a17565b5050565b60008181526003602052604090206001015460021115610b1d5760405162461bcd60e51b81526020600482015260126024820152714e6f7420656e6f75676820706c617965727360701b60448201526064016105da565b60008181526003602090815260409182902060080154825191820152429181019190915244606082015260800160408051601f1981840301815291815281516020928301206000938452600390925290912060080155565b60008581526003602052604090208415610b9e5760078101805460ff19811660ff909116151790555b600181015460008580610bae5750845b80610bb65750835b15610c1657600783015460ff16610bf357816002838560030154610bda9190610fcf565b610be49190610fa6565b610bee9190610fe2565b610c0f565b8183600301546002610c059190610fcf565b610c0f9190610fe2565b9050610c6d565b600783015460ff16610c4e57816001838560030154610c359190610fcf565b610c3f9190610fa6565b610c499190610fe2565b610c6a565b8183600301546001610c609190610fcf565b610c6a9190610fe2565b90505b60038301819055426005840155600683018054906000610c8c83610f61565b91905055505050505050505050565b828054828255906000526020600020908101928215610cf0579160200282015b82811115610cf057825182546001600160a01b0319166001600160a01b03909116178255602090920191600190910190610cbb565b50610cfc929150610d00565b5090565b5b80821115610cfc5760008155600101610d01565b600060208284031215610d2757600080fd5b5035919050565b602080825282518282018190526000918401906040840190835b81811015610d66578351835260209384019390920191600101610d48565b509095945050505050565b60008060408385031215610d8457600080fd5b8235915060208301356001600160a01b0381168114610da257600080fd5b809150509250929050565b602080825282518282018190526000918401906040840190835b81811015610d6657835180516001600160a01b03168452602080820151818601526040918201519185019190915290930192606090920191600101610dc7565b60008060408385031215610e1a57600080fd5b50508035926020909101359150565b80358015158114610e3957600080fd5b919050565b60008060008060008060c08789031215610e5757600080fd5b8635955060208701359450610e6e60408801610e29565b9350610e7c60608801610e29565b9250610e8a60808801610e29565b9150610e9860a08801610e29565b90509295509295509295565b610100808252895190820181905260009060208b0190610120840190835b81811015610ee95783516001600160a01b0316835260209384019390920191600101610ec2565b50508a151560208501529150610efc9050565b8760408301528660608301528560808301528460a0830152610f2260c083018515159052565b8260e08301529998505050505050505050565b634e487b7160e01b600052603260045260246000fd5b634e487b7160e01b600052601160045260246000fd5b600060018201610f7357610f73610f4b565b5060010190565b60208082526012908201527147616d65206973206e6f742061637469766560701b604082015260600190565b818103818111156102ec576102ec610f4b565b634e487b7160e01b600052603160045260246000fd5b808201808211156102ec576102ec610f4b565b600082610fff57634e487b7160e01b600052601260045260246000fd5b50069056fea2646970667358221220fd0817da24559853b74929fdc45bc83b615b3900d23c24c33d02e48ce890d32864736f6c634300081a0033","linkReferences":{}},"methodIdentifiers":{"createGame()":"7255d729","endGame(uint256)":"d0399bb8","gameActions(uint256,uint256)":"b71d79f3","games(uint256)":"117a5b90","getActiveGames()":"1b76929c","getGameActions(uint256)":"b5870a68","getGameState(uint256)":"ffde0c74","isPlayerTurn(uint256,address)":"3a240e98","joinGame(uint256)":"efaa55a0","submitAction(uint256,bytes32,bool,bool,bool,bool)":"f7a432e4"},"id":21}